S0190000415454494E593834415F53494F5F5350492E73726563F0
S113000010C02AC029C028C027C026C025C024C0CB
S113001023C022C021C020C01FC01EC01DC01CC0E0
S11300201BC011241FBECFE5D2E0DEBFCDBF10E060
S1130030A0E6B0E0ECE5F1E002C005900D92A03638
S1130040B107D9F720E0A0E6B0E001C01D92A436C4
S1130050B207E1F746D080C0D3CF82E089BB95E8F0
S11300609A95F1F7000089BB95E89A95F1F700009D
S113007089BB95E89A95F1F7000089BB85E88A95D4
S1130080F1F7000080E289BB089580E00CC092E0A3
S113009099BB25E82A95F1F7000099BB95E89A9554
S11300A0F1F700008F5F803190F384E289BB1092F6
S11300B061001092600012BE08958BB38B7F8BBBDE
S11300C080E00CC093E099BB25E82A95F1F7000085
S11300D099BB95E89A95F1F700008F5F883090F30B
S11300E0089587E28ABB84E28BBB19BE10BE86E00A
S11300F083BF12BE89B380788093630080936200CB
S113010089B380788093620090916300903831F4D1
S1130110811104C080936300A0DFF2CF22B730E0E6
S113012040916000509161002417350759F0C5DFF4
S1130130809160009091610001969093610080939A
S11301406000DECF9111DCCF8038D1F69EDF809144
S10F0150620080936300D4CFF894FFCFCA
S9030000FC
