:1000000010C02AC029C028C027C026C025C024C0CF
:1000100023C022C021C020C01FC01EC01DC01CC0E4
:100020001BC011241FBECFE5D2E0DEBFCDBF10E064
:10003000A0E6B0E0E8E5F1E002C005900D92A03640
:10004000B107D9F720E0A0E6B0E001C01D92A436C8
:10005000B207E1F745D07EC0D3CF80E289BB95E8F7
:100060009A95F1F7000089BB95E89A95F1F70000A1
:1000700089BB95E89A95F1F7000089BB85E88A95D8
:10008000F1F7000082E089BB089580E190E299BB1E
:1000900025E82A95F1F7000099BB25E82A95F1F7A4
:1000A00000008150A1F78BB386608BBB109261007A
:1000B0001092600012BE089588E091E299BB22E49C
:1000C0002A95F1F700C0DA9822E42A95F1F700C0EA
:1000D00099BB25E82A95F1F70000815079F708953A
:1000E00087E28ABB86E08BBB19BE10BE83BF12BEFF
:1000F00089B38078809363008093620089B38078AD
:100100008093620090916300903831F4811104C0B3
:1001100010926300A2DFF2CF22B730E0409160007E
:10012000509161002417350759F0C6DF80916000B7
:100130009091610001969093610080936000DECF02
:100140009111DCCF8038D1F6A0DF809162008093DE
:080150006300D4CFF894FFCF47
:00000001FF
